{
  "_format": "hh-sol-artifact-1",
  "contractName": "Tracking",
  "sourceName": "contracts/Tracking.sol",
  "abi": [
    {
      "inputs": [],
      "stateMutability": "nonpayable",
      "type": "constructor"
    },
    {
      "anonymous": false,
      "inputs": [
        {
          "indexed": true,
          "internalType": "address",
          "name": "sender",
          "type": "address"
        },
        {
          "indexed": true,
          "internalType": "address",
          "name": "receiver",
          "type": "address"
        },
        {
          "indexed": false,
          "internalType": "uint256",
          "name": "pickupTime",
          "type": "uint256"
        },
        {
          "indexed": false,
          "internalType": "uint256",
          "name": "distance",
          "type": "uint256"
        },
        {
          "indexed": false,
          "internalType": "uint256",
          "name": "price",
          "type": "uint256"
        }
      ],
      "name": "ShipmentCreated",
      "type": "event"
    },
    {
      "anonymous": false,
      "inputs": [
        {
          "indexed": true,
          "internalType": "address",
          "name": "sender",
          "type": "address"
        },
        {
          "indexed": true,
          "internalType": "address",
          "name": "receiver",
          "type": "address"
        },
        {
          "indexed": false,
          "internalType": "uint256",
          "name": "deliveryTime",
          "type": "uint256"
        }
      ],
      "name": "ShipmentDelivered",
      "type": "event"
    },
    {
      "anonymous": false,
      "inputs": [
        {
          "indexed": true,
          "internalType": "address",
          "name": "sender",
          "type": "address"
        },
        {
          "indexed": true,
          "internalType": "address",
          "name": "receiver",
          "type": "address"
        },
        {
          "indexed": false,
          "internalType": "uint256",
          "name": "pickupTime",
          "type": "uint256"
        }
      ],
      "name": "ShipmentInTransit",
      "type": "event"
    },
    {
      "anonymous": false,
      "inputs": [
        {
          "indexed": true,
          "internalType": "address",
          "name": "sender",
          "type": "address"
        },
        {
          "indexed": true,
          "internalType": "address",
          "name": "receiver",
          "type": "address"
        },
        {
          "indexed": false,
          "internalType": "uint256",
          "name": "amount",
          "type": "uint256"
        }
      ],
      "name": "ShipmentPaid",
      "type": "event"
    },
    {
      "inputs": [
        {
          "internalType": "address",
          "name": "_sender",
          "type": "address"
        },
        {
          "internalType": "address",
          "name": "_receiver",
          "type": "address"
        },
        {
          "internalType": "uint256",
          "name": "_index",
          "type": "uint256"
        }
      ],
      "name": "completeShipment",
      "outputs": [],
      "stateMutability": "nonpayable",
      "type": "function"
    },
    {
      "inputs": [
        {
          "internalType": "address",
          "name": "_receiver",
          "type": "address"
        },
        {
          "internalType": "uint256",
          "name": "_pickupTime",
          "type": "uint256"
        },
        {
          "internalType": "uint256",
          "name": "_distance",
          "type": "uint256"
        },
        {
          "internalType": "uint256",
          "name": "_price",
          "type": "uint256"
        }
      ],
      "name": "createShipment",
      "outputs": [],
      "stateMutability": "payable",
      "type": "function"
    },
    {
      "inputs": [],
      "name": "getAllTransactions",
      "outputs": [
        {
          "components": [
            {
              "internalType": "address",
              "name": "sender",
              "type": "address"
            },
            {
              "internalType": "address",
              "name": "receiver",
              "type": "address"
            },
            {
              "internalType": "uint256",
              "name": "pickupTime",
              "type": "uint256"
            },
            {
              "internalType": "uint256",
              "name": "deliveryTime",
              "type": "uint256"
            },
            {
              "internalType": "uint256",
              "name": "distance",
              "type": "uint256"
            },
            {
              "internalType": "uint256",
              "name": "price",
              "type": "uint256"
            },
            {
              "internalType": "enum Tracking.ShipmentStatus",
              "name": "status",
              "type": "uint8"
            },
            {
              "internalType": "bool",
              "name": "isPaid",
              "type": "bool"
            }
          ],
          "internalType": "struct Tracking.TypeShipment[]",
          "name": "",
          "type": "tuple[]"
        }
      ],
      "stateMutability": "view",
      "type": "function"
    },
    {
      "inputs": [
        {
          "internalType": "address",
          "name": "_sender",
          "type": "address"
        },
        {
          "internalType": "uint256",
          "name": "_index",
          "type": "uint256"
        }
      ],
      "name": "getShipment",
      "outputs": [
        {
          "internalType": "address",
          "name": "",
          "type": "address"
        },
        {
          "internalType": "address",
          "name": "",
          "type": "address"
        },
        {
          "internalType": "uint256",
          "name": "",
          "type": "uint256"
        },
        {
          "internalType": "uint256",
          "name": "",
          "type": "uint256"
        },
        {
          "internalType": "uint256",
          "name": "",
          "type": "uint256"
        },
        {
          "internalType": "uint256",
          "name": "",
          "type": "uint256"
        },
        {
          "internalType": "enum Tracking.ShipmentStatus",
          "name": "",
          "type": "uint8"
        },
        {
          "internalType": "bool",
          "name": "",
          "type": "bool"
        }
      ],
      "stateMutability": "view",
      "type": "function"
    },
    {
      "inputs": [
        {
          "internalType": "address",
          "name": "_sender",
          "type": "address"
        }
      ],
      "name": "getShipmentsCount",
      "outputs": [
        {
          "internalType": "uint256",
          "name": "",
          "type": "uint256"
        }
      ],
      "stateMutability": "view",
      "type": "function"
    },
    {
      "inputs": [],
      "name": "shipmentCount",
      "outputs": [
        {
          "internalType": "uint256",
          "name": "",
          "type": "uint256"
        }
      ],
      "stateMutability": "view",
      "type": "function"
    },
    {
      "inputs": [
        {
          "internalType": "address",
          "name": "",
          "type": "address"
        },
        {
          "internalType": "uint256",
          "name": "",
          "type": "uint256"
        }
      ],
      "name": "shipments",
      "outputs": [
        {
          "internalType": "address",
          "name": "sender",
          "type": "address"
        },
        {
          "internalType": "address",
          "name": "receiver",
          "type": "address"
        },
        {
          "internalType": "uint256",
          "name": "pickupTime",
          "type": "uint256"
        },
        {
          "internalType": "uint256",
          "name": "deliveryTime",
          "type": "uint256"
        },
        {
          "internalType": "uint256",
          "name": "distance",
          "type": "uint256"
        },
        {
          "internalType": "uint256",
          "name": "price",
          "type": "uint256"
        },
        {
          "internalType": "enum Tracking.ShipmentStatus",
          "name": "status",
          "type": "uint8"
        },
        {
          "internalType": "bool",
          "name": "isPaid",
          "type": "bool"
        }
      ],
      "stateMutability": "view",
      "type": "function"
    },
    {
      "inputs": [
        {
          "internalType": "address",
          "name": "_sender",
          "type": "address"
        },
        {
          "internalType": "address",
          "name": "_receiver",
          "type": "address"
        },
        {
          "internalType": "uint256",
          "name": "_index",
          "type": "uint256"
        }
      ],
      "name": "startShipment",
      "outputs": [],
      "stateMutability": "nonpayable",
      "type": "function"
    }
  ],
  "bytecode": "0x608060405234801561001057600080fd5b506000600155610e18806100256000396000f3fe60806040526004361061007b5760003560e01c80637ff5265d1161004e5780637ff5265d146101455780638365da5414610165578063aace20b714610185578063cbc4b1811461019b57600080fd5b8063179a878c1461008057806327506f53146100a257806341fdc195146100cd5780635667e02f14610111575b600080fd5b34801561008c57600080fd5b506100a061009b366004610bb0565b6101ae565b005b3480156100ae57600080fd5b506100b7610453565b6040516100c49190610c24565b60405180910390f35b3480156100d957600080fd5b506101036100e8366004610cc9565b6001600160a01b031660009081526020819052604090205490565b6040519081526020016100c4565b34801561011d57600080fd5b5061013161012c366004610ceb565b610548565b6040516100c4989796959493929190610d15565b34801561015157600080fd5b506100a0610160366004610bb0565b6105bb565b34801561017157600080fd5b50610131610180366004610ceb565b610748565b34801561019157600080fd5b5061010360015481565b6100a06101a9366004610d6c565b610884565b6001600160a01b03831660009081526020819052604081208054839081106101d8576101d8610da5565b906000526020600020906007020190506000600283815481106101fd576101fd610da5565b60009182526020909120600184015460079092020191506001600160a01b038581169116146102695760405162461bcd60e51b815260206004820152601360248201527224b73b30b634b2103932b1b2b4bb32b917171760691b60448201526064015b60405180910390fd5b6001600683015460ff16600281111561028457610284610bec565b146102d15760405162461bcd60e51b815260206004820152601b60248201527f736869706d656e7420616c726561647920696e207472616e73697400000000006044820152606401610260565b6006820154610100900460ff161561032b5760405162461bcd60e51b815260206004820152601860248201527f536869706d656e7420616c726561647920706169642e2e2e00000000000000006044820152606401610260565b60068281018054600260ff1991821681179092559183018054909216179055426003808301829055830155600582015482546040516001600160a01b039091169082156108fc029083906000818181858888f19350505050158015610394573d6000803e3d6000fd5b506006838101805461010061ff00199182168117909255918401805490921617905560038301546040519081526001600160a01b0386811691908816907f3746ccceb54f44c9b0ee0120e596168d07ec9f6ca303cfdd9810d3b2e2686a2e9060200160405180910390a3846001600160a01b0316866001600160a01b03167f2b6f2473aebafaf8d0889669490135928ec4454d2e29a103fd39693bbca6aef18360405161044391815260200190565b60405180910390a3505050505050565b60606002805480602002602001604051908101604052809291908181526020016000905b8282101561053f57600084815260209081902060408051610100810182526007860290920180546001600160a01b03908116845260018201541693830193909352600280840154918301919091526003830154606083015260048301546080830152600583015460a0830152600683015491929160c084019160ff9091169081111561050557610505610bec565b600281111561051657610516610bec565b815260069190910154610100900460ff1615156020918201529082526001929092019101610477565b50505050905090565b6000602052816000526040600020818154811061056457600080fd5b600091825260209091206007909102018054600182015460028301546003840154600485015460058601546006909601546001600160a01b0395861698509490931695509093909260ff8082169161010090041688565b6001600160a01b03831660009081526020819052604081208054839081106105e5576105e5610da5565b9060005260206000209060070201905060006002838154811061060a5761060a610da5565b60009182526020909120600184015460079092020191506001600160a01b038581169116146106715760405162461bcd60e51b815260206004820152601360248201527224b73b30b634b2103932b1b2b4bb32b917171760691b6044820152606401610260565b6000600683015460ff16600281111561068c5761068c610bec565b146106d95760405162461bcd60e51b815260206004820152601b60248201527f736869706d656e7420616c726561647920696e207472616e73697400000000006044820152606401610260565b60068281018054600160ff199182168117909255918301805490921617905560028201546040519081526001600160a01b0385811691908716907faafab9f94340179ff9cefd29621e1772a4b8efab8023163838f1b0a8f6ce5df5906020015b60405180910390a35050505050565b60008060008060008060008060008060008c6001600160a01b03166001600160a01b031681526020019081526020016000208a8154811061078b5761078b610da5565b60009182526020918290206040805161010081018252600790930290910180546001600160a01b03908116845260018201541693830193909352600280840154918301919091526003830154606083015260048301546080830152600583015460a0830152600683015491929160c084019160ff9091169081111561081257610812610bec565b600281111561082357610823610bec565b81526006919091015460ff61010090910416151560209182015281519082015160408301516060840151608085015160a086015160c087015160e090970151959f50939d50919b509950975095509093509150509295985092959890939650565b8034146108d35760405162461bcd60e51b815260206004820181905260248201527f70617920746865206578616374207072696365207370656369666965642e2e2e6044820152606401610260565b6000604051806101000160405280336001600160a01b03168152602001866001600160a01b03168152602001858152602001600081526020018481526020018381526020016000600281111561092b5761092b610bec565b815260006020918201819052338152808252604080822080546001818101835591845292849020855160079094020180546001600160a01b039485166001600160a01b031991821617825594860151818301805491909516951694909417909255830151600280840191909155606084015160038401556080840151600484015560a0840151600584015560c084015160068401805495965086959193909260ff199092169184908111156109e2576109e2610bec565b021790555060e09190910151600690910180549115156101000261ff001990921691909117905560018054906000610a1983610dbb565b91905055506002604051806101000160405280336001600160a01b03168152602001876001600160a01b031681526020018681526020016000815260200185815260200184815260200160006002811115610a7657610a76610bec565b81526000602091820181905283546001818101865594825290829020835160079092020180546001600160a01b039283166001600160a01b03199182161782559284015181860180549190931693169290921790556040820151600280830191909155606083015160038301556080830151600483015560a0830151600583015560c0830151600683018054949593949193909260ff19909216918490811115610b2257610b22610bec565b021790555060e09190910151600690910180549115156101000261ff001990921691909117905560408051858152602081018590529081018390526001600160a01b0386169033907f5001b34ecf2db5b7bbeddcbbe761ec9ecadcc7638018b98ce3e24995b0e946b690606001610739565b80356001600160a01b0381168114610bab57600080fd5b919050565b600080600060608486031215610bc557600080fd5b610bce84610b94565b9250610bdc60208501610b94565b9150604084013590509250925092565b634e487b7160e01b600052602160045260246000fd5b60038110610c2057634e487b7160e01b600052602160045260246000fd5b9052565b602080825282518282018190526000919060409081850190868401855b82811015610cbc57815180516001600160a01b0390811686528782015116878601528581015186860152606080820151908601526080808201519086015260a0808201519086015260c080820151610c9b82880182610c02565b505060e0908101511515908501526101009093019290850190600101610c41565b5091979650505050505050565b600060208284031215610cdb57600080fd5b610ce482610b94565b9392505050565b60008060408385031215610cfe57600080fd5b610d0783610b94565b946020939093013593505050565b6001600160a01b0389811682528816602082015260408101879052606081018690526080810185905260a081018490526101008101610d5760c0830185610c02565b82151560e08301529998505050505050505050565b60008060008060808587031215610d8257600080fd5b610d8b85610b94565b966020860135965060408601359560600135945092505050565b634e487b7160e01b600052603260045260246000fd5b600060018201610ddb57634e487b7160e01b600052601160045260246000fd5b506001019056fea26469706673582212201ccdbc87a0469941b1b9992ddd713f1379ea7a0113a08f381834ba83f0124a7164736f6c63430008130033",
  "linkReferences": {},
  "deployedLinkReferences": {}
}