{
  "_format": "hh-sol-artifact-1",
  "contractName": "Tracking",
  "sourceName": "contracts/Tracking.sol",
  "abi": [
    {
      "inputs": [],
      "stateMutability": "nonpayable",
      "type": "constructor"
    },
    {
      "anonymous": false,
      "inputs": [
        {
          "indexed": true,
          "internalType": "address",
          "name": "sender",
          "type": "address"
        },
        {
          "indexed": true,
          "internalType": "address",
          "name": "receiver",
          "type": "address"
        },
        {
          "indexed": false,
          "internalType": "uint256",
          "name": "pickupTime",
          "type": "uint256"
        },
        {
          "indexed": false,
          "internalType": "uint256",
          "name": "distance",
          "type": "uint256"
        },
        {
          "indexed": false,
          "internalType": "uint256",
          "name": "price",
          "type": "uint256"
        }
      ],
      "name": "ShipmentCreated",
      "type": "event"
    },
    {
      "anonymous": false,
      "inputs": [
        {
          "indexed": true,
          "internalType": "address",
          "name": "sender",
          "type": "address"
        },
        {
          "indexed": true,
          "internalType": "address",
          "name": "receiver",
          "type": "address"
        },
        {
          "indexed": false,
          "internalType": "uint256",
          "name": "deliveryTime",
          "type": "uint256"
        }
      ],
      "name": "ShipmentDelivered",
      "type": "event"
    },
    {
      "anonymous": false,
      "inputs": [
        {
          "indexed": true,
          "internalType": "address",
          "name": "sender",
          "type": "address"
        },
        {
          "indexed": true,
          "internalType": "address",
          "name": "receiver",
          "type": "address"
        },
        {
          "indexed": false,
          "internalType": "uint256",
          "name": "pickupTime",
          "type": "uint256"
        }
      ],
      "name": "ShipmentInTransit",
      "type": "event"
    },
    {
      "anonymous": false,
      "inputs": [
        {
          "indexed": true,
          "internalType": "address",
          "name": "sender",
          "type": "address"
        },
        {
          "indexed": true,
          "internalType": "address",
          "name": "receiver",
          "type": "address"
        },
        {
          "indexed": false,
          "internalType": "uint256",
          "name": "amount",
          "type": "uint256"
        }
      ],
      "name": "ShipmentPaid",
      "type": "event"
    },
    {
      "inputs": [
        {
          "internalType": "address",
          "name": "_sender",
          "type": "address"
        },
        {
          "internalType": "address",
          "name": "_receiver",
          "type": "address"
        },
        {
          "internalType": "uint256",
          "name": "_index",
          "type": "uint256"
        }
      ],
      "name": "completeShipment",
      "outputs": [],
      "stateMutability": "nonpayable",
      "type": "function"
    },
    {
      "inputs": [
        {
          "internalType": "address",
          "name": "_receiver",
          "type": "address"
        },
        {
          "internalType": "uint256",
          "name": "_pickupTime",
          "type": "uint256"
        },
        {
          "internalType": "uint256",
          "name": "_distance",
          "type": "uint256"
        },
        {
          "internalType": "uint256",
          "name": "_price",
          "type": "uint256"
        }
      ],
      "name": "createShipment",
      "outputs": [],
      "stateMutability": "payable",
      "type": "function"
    },
    {
      "inputs": [],
      "name": "getAllTransactions",
      "outputs": [
        {
          "components": [
            {
              "internalType": "address",
              "name": "sender",
              "type": "address"
            },
            {
              "internalType": "address",
              "name": "receiver",
              "type": "address"
            },
            {
              "internalType": "uint256",
              "name": "pickupTime",
              "type": "uint256"
            },
            {
              "internalType": "uint256",
              "name": "deliveryTime",
              "type": "uint256"
            },
            {
              "internalType": "uint256",
              "name": "distance",
              "type": "uint256"
            },
            {
              "internalType": "uint256",
              "name": "price",
              "type": "uint256"
            },
            {
              "internalType": "enum Tracking.ShipmentStatus",
              "name": "status",
              "type": "uint8"
            },
            {
              "internalType": "bool",
              "name": "isPaid",
              "type": "bool"
            }
          ],
          "internalType": "struct Tracking.TypeShipment[]",
          "name": "",
          "type": "tuple[]"
        }
      ],
      "stateMutability": "view",
      "type": "function"
    },
    {
      "inputs": [
        {
          "internalType": "address",
          "name": "_sender",
          "type": "address"
        },
        {
          "internalType": "uint256",
          "name": "_index",
          "type": "uint256"
        }
      ],
      "name": "getShipment",
      "outputs": [
        {
          "internalType": "address",
          "name": "",
          "type": "address"
        },
        {
          "internalType": "address",
          "name": "",
          "type": "address"
        },
        {
          "internalType": "uint256",
          "name": "",
          "type": "uint256"
        },
        {
          "internalType": "uint256",
          "name": "",
          "type": "uint256"
        },
        {
          "internalType": "uint256",
          "name": "",
          "type": "uint256"
        },
        {
          "internalType": "uint256",
          "name": "",
          "type": "uint256"
        },
        {
          "internalType": "enum Tracking.ShipmentStatus",
          "name": "",
          "type": "uint8"
        },
        {
          "internalType": "bool",
          "name": "",
          "type": "bool"
        }
      ],
      "stateMutability": "view",
      "type": "function"
    },
    {
      "inputs": [
        {
          "internalType": "address",
          "name": "_sender",
          "type": "address"
        }
      ],
      "name": "getShipmentsCount",
      "outputs": [
        {
          "internalType": "uint256",
          "name": "",
          "type": "uint256"
        }
      ],
      "stateMutability": "view",
      "type": "function"
    },
    {
      "inputs": [],
      "name": "owner",
      "outputs": [
        {
          "internalType": "address",
          "name": "",
          "type": "address"
        }
      ],
      "stateMutability": "view",
      "type": "function"
    },
    {
      "inputs": [],
      "name": "shipmentCount",
      "outputs": [
        {
          "internalType": "uint256",
          "name": "",
          "type": "uint256"
        }
      ],
      "stateMutability": "view",
      "type": "function"
    },
    {
      "inputs": [
        {
          "internalType": "address",
          "name": "",
          "type": "address"
        },
        {
          "internalType": "uint256",
          "name": "",
          "type": "uint256"
        }
      ],
      "name": "shipments",
      "outputs": [
        {
          "internalType": "address",
          "name": "sender",
          "type": "address"
        },
        {
          "internalType": "address",
          "name": "receiver",
          "type": "address"
        },
        {
          "internalType": "uint256",
          "name": "pickupTime",
          "type": "uint256"
        },
        {
          "internalType": "uint256",
          "name": "deliveryTime",
          "type": "uint256"
        },
        {
          "internalType": "uint256",
          "name": "distance",
          "type": "uint256"
        },
        {
          "internalType": "uint256",
          "name": "price",
          "type": "uint256"
        },
        {
          "internalType": "enum Tracking.ShipmentStatus",
          "name": "status",
          "type": "uint8"
        },
        {
          "internalType": "bool",
          "name": "isPaid",
          "type": "bool"
        }
      ],
      "stateMutability": "view",
      "type": "function"
    },
    {
      "inputs": [
        {
          "internalType": "address",
          "name": "_sender",
          "type": "address"
        },
        {
          "internalType": "address",
          "name": "_receiver",
          "type": "address"
        },
        {
          "internalType": "uint256",
          "name": "_index",
          "type": "uint256"
        }
      ],
      "name": "startShipment",
      "outputs": [],
      "stateMutability": "nonpayable",
      "type": "function"
    }
  ],
  "bytecode": "0x608060405234801561001057600080fd5b506000600281905580546001600160a01b03191633179055610e5d806100376000396000f3fe6080604052600436106100865760003560e01c80637ff5265d116100595780637ff5265d146101505780638365da54146101705780638da5cb5b14610190578063aace20b7146101c8578063cbc4b181146101de57600080fd5b8063179a878c1461008b57806327506f53146100ad57806341fdc195146100d85780635667e02f1461011c575b600080fd5b34801561009757600080fd5b506100ab6100a6366004610bf5565b6101f1565b005b3480156100b957600080fd5b506100c2610496565b6040516100cf9190610c69565b60405180910390f35b3480156100e457600080fd5b5061010e6100f3366004610d0e565b6001600160a01b031660009081526001602052604090205490565b6040519081526020016100cf565b34801561012857600080fd5b5061013c610137366004610d30565b61058b565b6040516100cf989796959493929190610d5a565b34801561015c57600080fd5b506100ab61016b366004610bf5565b6105fe565b34801561017c57600080fd5b5061013c61018b366004610d30565b61078b565b34801561019c57600080fd5b506000546101b0906001600160a01b031681565b6040516001600160a01b0390911681526020016100cf565b3480156101d457600080fd5b5061010e60025481565b6100ab6101ec366004610db1565b6108c8565b6001600160a01b038316600090815260016020526040812080548390811061021b5761021b610dea565b9060005260206000209060070201905060006003838154811061024057610240610dea565b60009182526020909120600184015460079092020191506001600160a01b038581169116146102ac5760405162461bcd60e51b815260206004820152601360248201527224b73b30b634b2103932b1b2b4bb32b917171760691b60448201526064015b60405180910390fd5b6001600683015460ff1660028111156102c7576102c7610c31565b146103145760405162461bcd60e51b815260206004820152601b60248201527f736869706d656e7420616c726561647920696e207472616e736974000000000060448201526064016102a3565b6006820154610100900460ff161561036e5760405162461bcd60e51b815260206004820152601860248201527f536869706d656e7420616c726561647920706169642e2e2e000000000000000060448201526064016102a3565b60068281018054600260ff19918216811790925591830180549092161790554260038083018290558301556005820154600080546040516001600160a01b039091169183156108fc02918491818181858888f193505050501580156103d7573d6000803e3d6000fd5b506006838101805461010061ff00199182168117909255918401805490921617905560038301546040519081526001600160a01b0386811691908816907f3746ccceb54f44c9b0ee0120e596168d07ec9f6ca303cfdd9810d3b2e2686a2e9060200160405180910390a3846001600160a01b0316866001600160a01b03167f2b6f2473aebafaf8d0889669490135928ec4454d2e29a103fd39693bbca6aef18360405161048691815260200190565b60405180910390a3505050505050565b60606003805480602002602001604051908101604052809291908181526020016000905b8282101561058257600084815260209081902060408051610100810182526007860290920180546001600160a01b03908116845260018201541693830193909352600280840154918301919091526003830154606083015260048301546080830152600583015460a0830152600683015491929160c084019160ff9091169081111561054857610548610c31565b600281111561055957610559610c31565b815260069190910154610100900460ff16151560209182015290825260019290920191016104ba565b50505050905090565b600160205281600052604060002081815481106105a757600080fd5b600091825260209091206007909102018054600182015460028301546003840154600485015460058601546006909601546001600160a01b0395861698509490931695509093909260ff8082169161010090041688565b6001600160a01b038316600090815260016020526040812080548390811061062857610628610dea565b9060005260206000209060070201905060006003838154811061064d5761064d610dea565b60009182526020909120600184015460079092020191506001600160a01b038581169116146106b45760405162461bcd60e51b815260206004820152601360248201527224b73b30b634b2103932b1b2b4bb32b917171760691b60448201526064016102a3565b6000600683015460ff1660028111156106cf576106cf610c31565b1461071c5760405162461bcd60e51b815260206004820152601b60248201527f736869706d656e7420616c726561647920696e207472616e736974000000000060448201526064016102a3565b60068281018054600160ff199182168117909255918301805490921617905560028201546040519081526001600160a01b0385811691908716907faafab9f94340179ff9cefd29621e1772a4b8efab8023163838f1b0a8f6ce5df5906020015b60405180910390a35050505050565b6000806000806000806000806000600160008c6001600160a01b03166001600160a01b031681526020019081526020016000208a815481106107cf576107cf610dea565b60009182526020918290206040805161010081018252600790930290910180546001600160a01b03908116845260018201541693830193909352600280840154918301919091526003830154606083015260048301546080830152600583015460a0830152600683015491929160c084019160ff9091169081111561085657610856610c31565b600281111561086757610867610c31565b81526006919091015460ff61010090910416151560209182015281519082015160408301516060840151608085015160a086015160c087015160e090970151959f50939d50919b509950975095509093509150509295985092959890939650565b8034146109175760405162461bcd60e51b815260206004820181905260248201527f70617920746865206578616374207072696365207370656369666965642e2e2e60448201526064016102a3565b6000604051806101000160405280336001600160a01b03168152602001866001600160a01b03168152602001858152602001600081526020018481526020018381526020016000600281111561096f5761096f610c31565b815260006020918201819052338152600180835260408083208054808401825590845292849020855160079094020180546001600160a01b039485166001600160a01b03199182161782559486015181840180549190951695169490941790925590830151600280840191909155606084015160038401556080840151600484015560a0840151600584015560c084015160068401805495965086959193909260ff19909216918490811115610a2757610a27610c31565b021790555060e09190910151600690910180549115156101000261ff001990921691909117905560028054906000610a5e83610e00565b91905055506003604051806101000160405280336001600160a01b03168152602001876001600160a01b031681526020018681526020016000815260200185815260200184815260200160006002811115610abb57610abb610c31565b81526000602091820181905283546001818101865594825290829020835160079092020180546001600160a01b039283166001600160a01b03199182161782559284015181860180549190931693169290921790556040820151600280830191909155606083015160038301556080830151600483015560a0830151600583015560c0830151600683018054949593949193909260ff19909216918490811115610b6757610b67610c31565b021790555060e09190910151600690910180549115156101000261ff001990921691909117905560408051858152602081018590529081018390526001600160a01b0386169033907f5001b34ecf2db5b7bbeddcbbe761ec9ecadcc7638018b98ce3e24995b0e946b69060600161077c565b80356001600160a01b0381168114610bf057600080fd5b919050565b600080600060608486031215610c0a57600080fd5b610c1384610bd9565b9250610c2160208501610bd9565b9150604084013590509250925092565b634e487b7160e01b600052602160045260246000fd5b60038110610c6557634e487b7160e01b600052602160045260246000fd5b9052565b602080825282518282018190526000919060409081850190868401855b82811015610d0157815180516001600160a01b0390811686528782015116878601528581015186860152606080820151908601526080808201519086015260a0808201519086015260c080820151610ce082880182610c47565b505060e0908101511515908501526101009093019290850190600101610c86565b5091979650505050505050565b600060208284031215610d2057600080fd5b610d2982610bd9565b9392505050565b60008060408385031215610d4357600080fd5b610d4c83610bd9565b946020939093013593505050565b6001600160a01b0389811682528816602082015260408101879052606081018690526080810185905260a081018490526101008101610d9c60c0830185610c47565b82151560e08301529998505050505050505050565b60008060008060808587031215610dc757600080fd5b610dd085610bd9565b966020860135965060408601359560600135945092505050565b634e487b7160e01b600052603260045260246000fd5b600060018201610e2057634e487b7160e01b600052601160045260246000fd5b506001019056fea264697066735822122001e7051b6084bd6b4b1c891fe135008f7549535ac66ceb2aa0f343e4985698e664736f6c63430008130033",
  "linkReferences": {},
  "deployedLinkReferences": {}
}